:1000000012C02CC02BC02AC029C028C027C026C0BF
:1000100025C07BC123C022C021C020C01FC01EC07C
:100020001DC01CC01BC011241FBECFE5D4E0DEBF25
:10003000CDBF10E0A0E6B0E0EEE1F5E002C0059033
:100040000D92AC38B107D9F720E0ACE8B0E001C0C0
:100050001D92A539B207E1F7A2D15FC2D1CF3FB758
:10006000F8948091910090919200A0919300B091AA
:10007000940022B708B600FE05C02F3F19F0019684
:10008000A11DB11D3FBFBA2FA92F982F8827820F1E
:10009000911DA11DB11DBC01CD0142E0660F771F6E
:1000A000881F991F4A95D1F708958F929F92AF921A
:1000B000BF92CF92DF92EF92FF926B017C01CFDF74
:1000C0004B015C01C114D104E104F104E9F0C7DF84
:1000D000DC01CB0188199909AA09BB09883E934024
:1000E000A105B10578F321E0C21AD108E108F108B1
:1000F00088EE880E83E0981EA11CB11CC114D104A7
:10010000E104F10421F7DECFFF90EF90DF90CF9074
:10011000BF90AF909F908F90089520E030E060E80E
:1001200070E090E0AB01022E02C0559547950A940D
:10013000E2F748235923452B11F4929A01C0929873
:10014000939A93982F5F3F4F2830310559F70895C0
:10015000CF93949824E0829FC0011124FC01E60F04
:10016000F11DEE0FFF1FE559FF4FC0818181D5DFE3
:100170008C2FD3DF949AC0986CE271E080E090E01D
:1001800094DFC09ACF9108951F93CF93DF93182FD8
:10019000811103C0C1E1D1E102C0C8E8D8E8949858
:1001A0008D2FBBDF8C2FB9DF949A82B38F7182BB06
:1001B000C09864EF71E080E090E077DF82B3806EFA
:1001C00082BBC09A112339F0C13181E1D80751F0C7
:1001D000D695C795E4CFC83888E8D80719F0CC0F72
:1001E000DD1FDDCF82B3806E82BBC09ADF91CF91DD
:1001F0001F9108951F93CF93DF93182F811103C090
:10020000CFE0D0E002C0C0E0D0EF94988D2F85DF22
:100210008C2F83DF949A82B38F7182BBC09864EF76
:1002200071E080E090E041DF82B3806E82BBC09AD3
:10023000112349F0CF30D10581F094E0D695C795D0
:100240009A95E1F7E2CFC11580EFD80731F084E04D
:10025000CC0FDD1F8A95E1F7D8CF82B3806E82BBC9
:10026000C09ADF91CF911F9108950F931F93CF9361
:10027000DF9300D01F92CDB7DEB7082F811102C0E7
:1002800010E001C013E08091600090916100A091A6
:10029000620089839A83AB8394988FEF3EDF8FEF60
:1002A0003CDF949A133051F4C09864EF71E080E021
:1002B00090E0FBDEC09A011118C01BC092B3E1E0D0
:1002C000F0E0EC0FFD1FE10FF11D80818095892387
:1002D00082BB64EF71E080E090E0E7DE82B3806E85
:1002E00082BB002321F0112321F01150DBCF1F5FCF
:1002F000D9CF82B3806E82BBC09A0F900F900F90BF
:10030000DF91CF911F910F9108951F920F920FB619
:100310000F9211242F933F938F939F93AF93BF938B
:1003200080918D0090918E00A0918F00B0919000EF
:1003300030918C0023E0230F2D3720F40196A11D6E
:10034000B11D05C026E8230F0296A11DB11D209303
:100350008C0080938D0090938E00A0938F00B093BB
:1003600090008091910090919200A0919300B091A3
:1003700094000196A11DB11D80939100909392006D
:10038000A0939300B0939400BF91AF919F918F91F0
:100390003F912F910F900FBE0F901F901895CF9304
:1003A000DF93CDB7DEB728970FB6F894DEBF0FBE48
:1003B000CDBF789483B7826083BF83B7816083BFEA
:1003C00089B7816089BF1EBC8EB582608EBD8EB537
:1003D00081608EBD8FB581608FBD85B5846085BD20
:1003E00085B5806485BD329A319A309A379A1AB8A9
:1003F00081B38C6F81BB82B3806E82BB87B38D610A
:1004000087BBC09A5E0189E0A80EB11C28E0F22EDD
:1004100060E080E09DDE61E080E09ADE62E080E006
:1004200097DE63E080E094DE63E081E091DE63E0EC
:1004300082E08EDE63E083E08BDE62E083E088DED4
:1004400061E083E085DE60E083E082DE60E082E000
:100450007FDE60E081E07CDE61E081E079DE62E009
:1004600081E076DE62E082E073DE61E082E070DEF1
:100470008BE6C82E80E0D82E94E0E92E00E010E054
:100480009498F601E00FF11F9080818146DE892D5E
:1004900044DE949AC09864EF71E080E090E005DE5D
:1004A000C09A0E5F1F4F0830110551F7EA94E8E03B
:1004B000CE0ED11CE110E2CF88E0E3E6F0E0DE01F1
:1004C000119601900D928A95E1F78E010F5F1F4FF3
:1004D0009498F801E08081810E5F1F4F1EDE8E2D03
:1004E0001CDE949AC09864EF71E080E090E0DDDD5E
:1004F000C09A0A151B0561F780E0B7DE81E0B5DE22
:1005000080E042DE81E040DE80E074DE81E072DE89
:0E051000FA94FF2009F47ACF7BCFF894FFCF46
:10051E0020408065567475755547740100020004BD
:10052E0000080010002000400080000001000200C2
:0C053E00040008001000200040008000B5
:00000001FF
